:04000000C4EF03F056
:08000800046ED8CF05F0E0CF33
:1000100006F00001E9CF0CF0EACF07F0E1CF08F0DD
:10002000E2CF09F0D9CF0AF0DACF0BF0F3CF12F01C
:10003000F4CF13F0FACF14F0F5CF15F0F6CF16F099
:10004000F7CF17F000C00EF001C00FF002C010F0A3
:1000500003C011F0F2AA30EF00F0F2B47CEF00F030
:100060000EC000F00FC001F010C002F011C003F08C
:100070000CC0E9FF07C0EAFF078E08C0E1FF09C016
:10008000E2FF0AC0D9FF0BC0DAFF12C0F3FF13C0B2
:10009000F4FF14C0FAFF15C0F5FF16C0F6FF17C035
:1000A000F7FF045006C0E0FF05C0D8FF10000900AC
:1000B000F5520DE0F6CF40F0F7CF41F0F5509EA895
:1000C000FED7AD6E40C0F6FF41C0F7FFF0D795EF09
:1000D00000F0EA6A410EE96EEF500DE0020E016E8B
:1000E000006A002EFED7012EFBD7970E006E002E61
:1000F000FED7EF2EF3D71200928680B602D0256A83
:100100008A92232A235064082CE1236A242A24504B
:100110000A0827E1246A252A2550140822E18A8248
:100120006E0EF66E010EF76EC2D7040E406EFA0E1A
:10013000416ECFDF402EFBD7256A262A26500A08BB
:1001400010E1266A272A275006080BE1276A282A89
:1001500028500A0806E1292A286A2950030801E1E3
:10016000296AD76AD90ED66EF29430EF00F0746F18
:100170006D652061677561200A0D000054656D7022
:100180003A254C752020202020200000746F6D65DA
:10019000206167756100205465726D6F2076616320
:1001A000696F20200000534D415254205445524D58
:1001B000414C202000003DB002D08C9601D08C86AE
:1001C0003DB202D08C9801D08C883DB402D08C9A7C
:1001D00001D08C8A3DB602D08C9C01D08C8C000062
:1001E0008C8000D000D08C9012003E6A000E83B646
:1001F000010E3E12000E83B8010E006ED89000363C
:1002000000503E12000E83BA010E006E003600361A
:10021000FC0E001600503E12000E83BC010E006E54
:10022000003600360036F80E001600503E123EC072
:1002300001F0120095869588958A958C8C84000033
:100240008C800000D2DF01C03DF08C9000008C80DB
:1002500000D0CBDF01C03CF08C9095969598959A94
:10026000959C3D38006EF00E001600503C10016E5B
:100270003FEF01F09590959295948C92DBD701C059
:100280003CF001BEFBD73A5202E18C9201D08C8245
:1002900000008C9400008C903B383C6E0F0E3C1696
:1002A0003CC03DF088DF3B500F0B3C6E3D6E83DF62
:1002B0001200280E2D6E0C0E2E6E010E2F6E060EE5
:1002C000306E8C908C928C9495969598959A959C7E
:1002D000959095929594196AF2BE198EF29E0F0E22
:1002E000416EF7DE19BEF28E010E2C6E2C50030803
:1002F0000EE3030E3D6E5FDF196AF2BE198EF29EA9
:10030000050E416EE6DE19BEF28E2C2AEFD7020EE4
:100310003D6E51DF196AF2BE198EF29E050E416ED6
:10032000D8DE19BEF28E2C6A2C5003080FE3036A44
:100330002C502D0FE96E000E0320EA6EEFCF31F046
:100340003A6A31C03BF096DF2C2AEED7EAEF03F091
:100350008E0E006E2DC001F02CC002F0036A015217
:1003600009E102C001F0026A080E005E015202E1DA
:10037000006A08D0D89001BE04D0023601360006CB
:10038000F9D7019E29EF04F03050D8B471D0006E37
:100390003450D8B46DD0002604E3810E002668E204
:1003A00004D07F0E005E64E363E031C038F0355066
:1003B000381A318E358E33503702F4CF3AF032503E
:1003C0003602F4CF03F0F3CF39F03702F3503A2678
:1003D000F4503922000E032233503602F3503A26ED
:1003E000F4503922000E026A0322022231503702F1
:1003F000F3503926F4500322000E02223150360207
:10040000F3500326F4500222000E016A01223350F9
:100410003502F3503926F4500322000E0222012245
:1004200032503502F3500326F4500222000E01220E
:1004300031503502F3500226F4500122002A01BE49
:1004400005D039360336023601360006000E39AEC5
:100450000AD0032A02220122015005E1025003E1E1
:10046000035001E1002A38BE018E38AE019E04D04F
:10047000006A016A026A036A12003050D8B4A5D03B
:100480003C6E3450D8B4A1D03C5E05E37F0E3C26D0
:10049000D8B09BD006D0810E3C5ED8A096D0D8B400
:1004A00094D03CC000F0016A026A036A3B6A31C022
:1004B0003AF03A8E32C039F033C038F0190E3C6E43
:1004C0003750385E0DE2010E395E0AE23A5E08E20C
:1004D0003B5E06E23B2A3A2A392A3750382628D092
:1004E0003650395E12E2010E3A5E0FE23B5E0DE2DB
:1004F0003B2A3A2A365039263750382619E3392A0A
:1005000017E13A2A15E13B2A13D0355080093A5EAB
:100510000EE2010E3B5E0BE23B2A355080093A2683
:1005200036503926E9E33A2AE7E13B2AE5D703804A
:100530003C2E01D00BD0D890383639363A363B367F
:10054000D8900336023601363D36BAD73DA006D0E4
:10055000D8900132023203323D3202D0000635E03B
:100560003DBE1ED0D890383639363A363B363750F5
:10057000385E07E2010E395E04E23A5E02E23B5E5B
:100580001AE33650395E05E2010E3A5E02E23B5E46
:1005900012E3355080093A5E03E2010E3B5E0BE345
:1005A000032A09E1022A07E1012A05E1002A0DE0F8
:1005B00001320232033231C03CF035503C1A3CAEBD
:1005C00002D0018E06D0019E04D0006A016A026A40
:1005D000036A65EF04F08E0E006E2C50005E2DC095
:1005E00002F02EC001F0028E005209E0D8900252B3
:1005F00002E1015204E002320132002EF7D72DAEA3
:1006000005D0011E021E012AD8B4022A6EEF04F0A2
:10061000372C01D003D0400E386E01D0386A010E5D
:10062000365C382638508009396E3A6A3B6E22DED5
:1006300012003550070A07E00B0A0AE0060A16E026
:10064000020A1AE01ED0010E366E376EE1DF1ED0B0
:100650003A6A010E3B6E0EDE196AF2BE198EF29EE8
:10066000020E416E36DD19BEF28E10D0010E366ECE
:10067000020E376ECDDF0AD03A6A100E3B6EFADDFD
:1006800005D0010E3A6E35C03BF0F4DD12000900D2
:10069000F6CF2DF0F7CF2EF0F5CF35F0CADF2DC015
:1006A000F6FF2EC0F7FF2C2EF2D71200EACF34F05F
:1006B000E9CF33F02D38F0092F6E2F26E20F306E80
:1006C000320F326E2D500F0B302630263226E90FB6
:1006D000316E312631262C380F0B31263226313639
:1006E0003236321E32362C500F0B32262F36070E82
:1006F0002E6E0A0E31063226FDE330063126FDE36A
:100700002F063026FDE32E062F26FDE3EA6A2E0E85
:10071000E96E070E3314339CE926000EEA22E950F5
:10072000320803E1EA5201E1338CEF50006E08E138
:1007300033BC06D033B813D033B602D0200E03D06A
:1007400033863398300E0026EACF2DF0E9CF2CF017
:1007500000C035F06EDF2DC0EAFF2CC0E9FFEE507F
:1007600033ACDDD785EF04F00900F5520CE0F6CF8D
:100770002CF0F7CF2DF0F5CF35F05BDF2CC0F6FF76
:100780002DC0F7FFF1D71200F86AD09E078E206ABD
:10079000226A216AB8960C0EAF6EA20EAC6E900E55
:1007A000AB6E236A246A256A266A276A286A296A40
:1007B000C150C00B0F09C16E070EB46E1A6A1B6AD6
:1007C000C150C00B0F09C16E000E936E8A6AC00E35
:1007D000F2126FD5C150C00B0E09C16EC050C00BD4
:1007E0000709C06EC08EC280C70ED56ED76AD90EFB
:1007F000D66EC00EF212F28A928680B60FD08A8030
:10080000040E2C6E196AF2BE198EF29EFA0E416E1B
:1008100060DC19BEF28E2C2EF5D78A90000E016E88
:10082000C250C30B0110C26E00D000D0C282C2B24F
:10083000FED7C3CF21F0C4CF22F0C282C2B2FED70E
:10084000C3CF2AF0C4CF2BF02BC02DF02AC02CF040
:100850007FD5336A326A200E316E810E306E03C04E
:1008600037F002C036F001C035F000C034F08CDD46
:1008700003C02FF002C02EF001C02DF000C02CF0FC
:1008800003C033F002C032F001C031F000C030F0DC
:10089000376A366A480E356E850E346E75DD03C0D4
:1008A0002FF002C02EF001C02DF000C02CF003C0CC
:1008B00033F002C032F001C031F000C030F0376ACE
:1008C000366A356A890E346ED8D503C02FF002C05F
:1008D0002EF001C02DF000C02CF07DD602C02BF010
:1008E00001C02AF0010E366E020E376E91DE7C0ECC
:1008F000F66E010EF76E050E2C6EC9DE100EE96E57
:100900002BC02DF02AC02CF0D1D6840EF66E010E2D
:10091000F76E060E2C6EBBDE2B5203E12A501E082A
:100920000EE29292898292948994010E366E020EA2
:10093000376E6EDE8C0EF66E010EF76E15DF2B52E3
:1009400007E12A501D0804E39292899292948984C7
:10095000928680B609D0010E366E376E59DE960E3D
:10096000F66E010EF76E00DF928680A609D0010EAA
:10097000366E376E4DDEA60EF66E010EF76EF4DEA5
:040980003BD703005E
:020000040030CA
:0E00000027C01E1E0007A1000FC00FE00F401A
:00000001FF
;PIC18F4550
;CRC=B19A  CREATED="10-oct.-21 20:53"
